:020000040800F2
:10000000FFFF0120C55600081557000815570008C6
:100010001557000815570008155700080000000084
:10002000000000000000000000000000155700085C
:10003000155700080000000015570008DD030008F0
:1000400015570008155700081557000815570008E0
:1000500015570008155700081557000815570008D0
:1000600015570008155700081557000815570008C0
:1000700015570008155700081557000815570008B0
:1000800015570008155700081557000815570008A0
:100090001557000815570008155700081557000890
:1000A0001557000815570008155700081557000880
:1000B0001557000815570008155700081557000870
:1000C0001557000815570008155700081557000860
:1000D0001557000815570008155700081557000850
:1000E0001557000815570008155700081557000840
:1000F0001557000815570008155700081557000830
:10010000155700081557000815570008155700081F
:10011000155700081557000815570008155700080F
:1001200015570008155700081557000815570008FF
:1001300015570008155700081557000815570008EF
:1001400015570008155700081557000815570008DF
:1001500015570008155700081557000815570008CF
:1001600015570008155700081557000815570008BF
:100170001557000815570008155700080000000023
:0801800015570008155700088F
:1001880008B540F24040074BC2F200001B1A062B8C
:1001980000D808BD40F20003C0F20003002BF8D0DD
:1001A8009847F6E74304002008B540F2404040F283
:1001B8004043C2F20003C2F200001B1A9B1003EB7B
:1001C800D373591000D108BD40F20002C0F20002FA
:1001D800002AF8D09047F6E710B540F24044C2F242
:1001E8000004237873B9FFF7CBFF40F20003C0F295
:1001F80000032BB145F67800C0F60000AFF300808D
:100208000123237010BD00BF08B540F20003C0F2FF
:1002180000034BB145F6780040F24441C0F60000B7
:10022800C2F20001AFF3008040F24040C2F2000089
:1002380003682BB140F20003C0F2000303B19847F2
:10024800BDE80840B0E700BF10B50D4C4FF40041C1
:100258002046002200F024FC20464FF48051002262
:1002680000F01EFC20464FF48041002200F018FCEC
:1002780020464FF400510022BDE8104000F010BCA9
:10028800000C024010B5144C4FF48041204600F099
:100298000CFC4FF4FA7000F091F820464FF400413E
:1002A80000F003FC4FF4FA7000F088F820464FF491
:1002B800805100F0FAFB4FF4FA7000F07FF8204606
:1002C8004FF4005100F0F1FB4FF4FA7000F076F8AB
:1002D800BDE81040FFF7B8BF000C024010B50D4C48
:1002E8004FF400412046012200F0DAFB20464FF48B
:1002F8008051012200F0D4FB20464FF480410122B6
:1003080000F0CEFB20464FF400510122BDE810401A
:1003180000F0C6BB000C02407FB50A4B0A481A6BB6
:1003280042F008021A634FF4704301930322012339
:1003380001A902930492039300F090FA07B05DF8C4
:1003480004FB00BF00380240000C024008B5044816
:100358004FF4804100F0A9FB642000F02FF8F6E785
:10036800000C02400A4B1A684FF47A73B2FBF3F29E
:10037800013AB2F1807F0AD2064B5A60064AF02150
:1003880082F8231000229A6007221A607047FEE75D
:100398000000002010E000E000ED00E0054B1A68C6
:1003A80012B11A68013A1A60034B1A6801321A60CE
:1003B800704700BF600400206404002082B0044B32
:1003C8000190019A1A601A68002AFCD102B070479D
:1003D80060040020FFF7E2BF10B50C460864A26D68
:1003E80008463C3101F06AFC2046A16DBDE810408A
:1003F80001F096BFF0B587B003230493954B0192A3
:1004080002250126994204460F460295039628D1F3
:1004180003F56053082A196B41EA0601196300F0D5
:100428008B800FD8AA425AD0042A7BD0B24240F01F
:100438002381894A05950260002282651A6C42F080
:1004480008024AE0802A55D0B2F5004F03D0402A6E
:1004580040F0128149E04FF0804202600596002288
:1004680065E07E4B99426DD103F55053402A196BD4
:1004780041F00201196342D011D8082A2FD009D8B7
:10048800012A22D0022A40F0F7800592744A0260BD
:100498000C221EE0102A28D0202A2BD0ECE0B2F53E
:1004A800007F3AD00AD8802A2ED0B2F5807F40F05B
:1004B800E3806C4A05950260082229E0B2F5806F56
:1004C80030D0B2F5006F37D0D6E0654A05950260A6
:1004D8000822A2651A6C42F002021A64CEE04FF0BC
:1004E800804222600596042221E05D4A059522603B
:1004F8000022EEE75A4A059522600422E9E7594AA4
:1005080005950260002203E0564A05950260042220
:10051800A2651A6C42F00402DFE7524A05950260B0
:100528000C22F5E74FF08042226005960822A2656A
:100538001A6C42F00102D0E74FF080422260059623
:100548000C22F4E7484B994221D103F54053802A05
:10055800196B41F004011963196C41F00201196427
:100568000FD005D8402A40F0878005953C4B47E0DE
:10057800B2F5807F08D0B2F5007F7DD10595384B64
:1005880064E00595364B41E00595354B49E0374B1E
:1005980099421CD103F53053B2F5005F196B41F055
:1005A80008011963196C41F0040119642CD005D8AD
:1005B800B2F5805F60D105952A4B21E0B2F5804FF6
:1005C80027D0B2F5004F57D10595264B3EE0284B72
:1005D800994229D103F5E053B2F5006F196B41F048
:1005E80080011963196C41F00801196414D0B2F53F
:1005F800805F14D0B2F5806F3ED10595A3F50B331B
:1006080023600023A36539E0164B05952360042376
:10061800F8E70595134B04E005950F4BF6E70E4BED
:10062800059523600823EDE7124B994224D103F581
:10063800C053012A196B41F480711963196C41F098
:100648000801196418D10595A3F50B3323600C2311
:10065800D8E700BF00000240000C00400004024040
:10066800000400400008004000080240000C02405E
:10067800001C024000200240FFF768FE01A938462E
:1006880000F0ECF8134B144A1B685B08B3FBF2F359
:10069800013B636044F61F63E360A36D0025237686
:1006A800A5602561204601F0EDF96023E36340F27F
:1006B800DC5323640423E36404F13C01A26D656404
:1006C800204601F0FBFA2046A16D01F029FE07B093
:1006D800F0BD00BF0000002040420F00F8B51D4BE0
:1006E8004FF4FA6206460F461A601D462B6883B31C
:1006F8003046394600F0CEF9044630B101280FD112
:1007080015484FF48041002203E013484FF480411C
:10071800012200F0C5F910484FF48051224615E037
:100728000D484FF48051012200F0BAF90A484FF4FD
:100738008041012200F0B4F907484FF4004101223A
:1007480000F0AEF904484FF40051012200F0A8F976
:10075800CCE7F8BD60040020000C024070B50646E6
:100768000D46084611461446FFF7B8FF314641F2D8
:100778008830FFF731FE28462146FFF7AFFF3146A4
:1007880042F21070FFF728FE28462146FFF7A6FF21
:10079800314644F6BC50FFF71FFE28462146FFF7B6
:1007A8009DFFBDE87040FFF74FBD00BF0C4B1A68B6
:1007B80042F001021A6000229A60196821F08471DF
:1007C80021F48031196007495960196821F48021A2
:1007D8001960DA60044B4FF000629A60704700BFFE
:1007E800003802401030002400ED00E0174A184B92
:1007F800916801F00C01042903D0082903D0154A97
:1008080018E0154A16E05068516810F4800F5068D7
:1008180014BF114A0F4A01F03F01B2FBF1F20B4934
:100828004968C1F30141C0F38810013142434900CE
:10083800B2FBF1F21A60054A9268C2F303121A4435
:1008480011791A68CA401A60704700BF0038024020
:10085800000000200024F40000127A002DE9F04383
:10086800D1F800C0002301229A4002EA0C05954203
:1008780040F0BA804C6824F01007022F13D1DE082C
:1008880000EB860603F00708326A4FEA88084FF043
:100898000F0909FA08F922EA09090A6902FA08F8A7
:1008A80049EA080232625A000326D0F800909640BE
:1008B800F64304F0030806EA090908FA02F8013FBA
:1008C80049EA0808012FC0F8008010D8876806EAAE
:1008D8000708CF68974048EA07078760476827EA0C
:1008E8000508C4F300179F4048EA07074760C76830
:1008F8003E408F68974046EA0702C260E20073D51F
:100908003C4A566C46F48046566423F0030606F1CA
:10091800804606F59C3603F00307B268BF004FF027
:100928000F0808FA07F822EA0808334A904226D046
:1009380002F58062904224D002F58062904222D073
:1009480002F58062904220D002F5806290421ED06B
:1009580002F5806290421CD002F5806290421AD063
:1009680002F58062904218D002F58062904216D05B
:1009780002F58062904214BF0A22092210E0002288
:100988000EE001220CE002220AE0032208E0042221
:1009980006E0052204E0062202E0072200E0082221
:1009A800BA4042EA0802B260144E3768EA4314F4C7
:1009B800803F14BF2F43174037607768A6030F4E58
:1009C80054BF17402F437760B76814F4801F14BFD3
:1009D8002F431740B760F668A40258BF02EA06051D
:1009E800064A48BF3543D5600133102B7FF43BAF2F
:1009F800BDE8F0830038024000000240003C01409E
:100A0800F0B5002301229A4002EA010494423BD146
:100A180003265A00056806FA02F2D24323FA06F6BC
:100A2800154000EB8606056003F0070C376A0F25B2
:100A38004FEA8C0C05FA0CFC27EA0C07376286682B
:100A4800164086604668E44326404660C6683240E1
:100A5800C26023F0030202F1804202F59C3203F0E7
:100A680003079668BF00BD4026EA05059560084A59
:100A780015682540156055682540556095682540DE
:100A88009560D5682C40D4600133102BBAD1F0BDE5
:100A9800003C0140036919420CBF00200120704747
:100AA8000AB10183704741837047436959404161E6
:100AB800704782B04FF480330193019B0B4301933D
:100AC800019BC361C161019BC361C3690193C06993
:100AD80080F48030C0F3004002B07047704708B51A
:100AE800034B5969084202D05861FFF7F7FF08BD68
:100AF800003C0140036A23F001030362026A436871
:100B080070B586690C6826F0730626438C6822F057
:100B1800020222430C4CA04209D004F58064A04292
:100B280005D043604B6886614363026270BDCC6840
:100B38008D6922F0080222434C6923F4407325434F
:100B480022F004022B43ECE700000140036A23F47F
:100B580080730362026A436830B5C5690C6825F082
:100B6800730525438C6822F4007242EA04220E4C75
:100B7800A04209D004F58064A04205D043604B68C8
:100B8800C561C363026230BDCC6822F4006242EAE8
:100B980004224C6923F4405343EA04138C6922F479
:100BA800806243EA0413E9E700000140036A23F482
:100BB8008053036230B5056A4368C2690C6822F441
:100BC800E64242EA04248A6825F4005545EA0235DB
:100BD800094A904209D002F58062904205D04360EC
:100BE8004B68C4610364056230BD4A6923F48043DD
:100BF80043EA8213F3E700BF0000014070477047E3
:100C0800022310B580F839300368196A41F21112CD
:100C18000A40044642B9196A40F244420A401AB9E5
:100C28001A6822F001021A602046FFF7E8FF002048
:100C380084F8390084F8380010BD022380F8393070
:100C480003681A6842F001021A60012380F83930FB
:100C580000207047022380F839300368196A41F28E
:100C680011120A4042B9196A40F244420A401AB9BC
:100C78001A6822F001021A60012380F83930002036
:100C880070470368DA6842F00102DA601A6842F0D5
:100C980001021A60002070470368DA6822F0010236
:100CA800DA60196A41F211120A4042B9196A40F22F
:100CB80044420A401AB91A6822F001021A60002058
:100CC800704710B5044690F83900C0B202281346A0
:100CD8001CD094F83900C0B2012804D101B9AAB9CE
:100CE800022284F83920E069094AC263094A826409
:100CF80022682C3202F02FFD2368DA6842F48072F1
:100D0800DA601A6842F001021A60002010BD00BFC4
:100D1800011800088F1900080368DA6822F4807245
:100D2800DA60196A41F211120A4042B9196A40F2AE
:100D380044420A401AB91A6822F001021A600123D3
:100D480080F839300020704770477047022310B58B
:100D580080F839300368196A41F211120A400446D2
:100D680042B9196A40F244420A401AB91A6822F094
:100D780001021A602046FFF7E8FF002084F83900D6
:100D880084F8380010BD70477047022310B580F80A
:100D980039300368196A41F211120A40044642B90F
:100DA800196A40F244420A401AB91A6822F001024C
:100DB8001A602046FFF7E8FF002084F8390084F81D
:100DC800380010BD70477047022310B580F83930DD
:100DD8000368196A41F211120A40044642B9196AB5
:100DE80040F244420A401AB91A6822F001021A6015
:100DF8002046FFF7E8FF002084F8390084F838001F
:100E080010BD70477047022310B580F83930036869
:100E1800196A41F211120A40044642B9196A40F2AD
:100E280044420A401AB91A6822F001021A602046A0
:100E3800FFF7E8FF002084F8390084F8380010BD77
:100E480003681A6A22F001021A621A6A42F0010261
:100E58001A621A6A22F010021A621A6A42F0100222
:100E68001A62064A934203D002F58062934203D184
:100E78005A6C42F400425A64002070470000014056
:100E880003681A6A22F001021A621A6A1A621A6A56
:100E980022F010021A621A6A1A62124A934203D0A6
:100EA80002F5806293420DD1196A41F211120A408B
:100EB80042B9196A40F244420A401AB95A6C22F4FB
:100EC80000425A64196A41F211120A4042B9196A79
:100ED80040F244420A401AB91A6822F001021A6024
:100EE80000207047000001400368DA6842F00202FF
:100EF800DA60DA6842F00402DA601A6A22F0010263
:100F08001A621A6A42F001021A621A6A22F0100280
:100F18001A621A6A42F010021A62064A934203D011
:100F280002F58062934203D15A6C42F400425A643B
:100F380000207047000001400368DA6822F00202CE
:100F4800DA60DA6822F00402DA601A6A22F0010232
:100F58001A621A6A1A621A6A22F010021A621A6A65
:100F68001A62124A934203D002F5806293420DD16D
:100F7800196A41F211120A4042B9196A40F2444210
:100F88000A401AB95A6C22F400425A64196A41F2AA
:100F980011120A4042B9196A40F244420A401AB989
:100FA8001A6822F001021A60002070470000014010
:100FB80070477047022310B580F839300368196A02
:100FC80041F211120A40044642B9196A40F24442F9
:100FD8000A401AB91A6822F001021A602046FFF77F
:100FE800E8FF002084F8390084F8380010BD036851
:100FF80051B1042910D01A6A22F001021A621A6A41
:1010080042F001021A6207E01A6A22F001021A622B
:101018001A6A42F0010206E01A6A22F010021A6205
:101028001A6A42F010021A621A6842F001021A6043
:1010380000207047036841B104290AD01A6A22F0D7
:1010480001021A621A6A1A6203E01A6A22F001029D
:1010580002E01A6A22F010021A621A6A1A62196AFF
:1010680041F211120A4042B9196A40F244420A4058
:101078001AB91A6822F001021A6000207047036842
:1010880051B1042914D11A6A22F010021A621A6A9C
:1010980042F010021A621FE01A6A22F001021A6274
:1010A8001A6A42F001021A62DA6842F0020216E095
:1010B8001A6A22F001021A621A6A42F001021A62DE
:1010C8001A6A22F010021A621A6A42F010021A62B0
:1010D800DA6842F00202DA60DA6842F00402DA60A2
:1010E8001A6842F001021A600020704703681A6A01
:1010F80041B922F001021A621A6A1A62DA6822F009
:10110800020219E0042905D122F010021A621A6AB3
:101118001A620EE022F001021A621A6A1A621A6A48
:1011280022F010021A621A6A1A62DA6822F00202BF
:10113800DA60DA6822F00402DA60196A41F2111200
:101148000A4042B9196A40F244420A401AB91A6878
:1011580022F001021A60012380F83930002070471C
:101168002DE9F041044690F83900BDF81850C0B296
:1011780002280E461F4600F0818094F83930012B72
:1011880006D102B10FB9002D74D1022384F8393089
:10119800042E1ED0182E39D0002E6ED1206A384B5E
:1011A8002168C363374B343183642B4602F0D3FA8A
:1011B8002368DA6842F40072DA601A6842F00102C1
:1011C8001A601A6A22F001021A621A6A42F00102CF
:1011D8001AE0606A2A4B2168C3632A4B3A46836443
:1011E80038312B4602F0B7FA2368DA6842F4806295
:1011F800DA601A6842F001021A601A6A22F01002D4
:101208001A621A6A42F010021A6236E0206ADFF89F
:1012180070801C4E2168C0F83C8034312B468664AF
:1012280002F099FA606A2168C0F83C803A462B4679
:101238008664383102F08FFA23681A6842F0010296
:101248001A601A6A22F001021A621A6A42F001024E
:101258001A621A6A22F010021A621A6A42F010021E
:101268001A62DA6842F40072DA60DA6842F480627C
:10127800DA6002E00120BDE8F0810020BDE8F081DD
:10128800151800088F19000803681A6A41B922F076
:1012980001021A621A6A1A62DA6822F4007219E004
:1012A800042905D122F010021A621A6A1A620EE0A5
:1012B80022F001021A621A6A1A621A6A22F01002ED
:1012C8001A621A6A1A62DA6822F40072DA60DA6854
:1012D80022F48062DA60196A41F211120A4042B9B6
:1012E800196A40F244420A401AB91A6822F0010207
:1012F8001A60012380F8393000207047F8B5044699
:1013080090F83900069DC0B202280F4616461946C5
:1013180044D094F83900C0B2012805D10BB9002D8A
:101328003CD1022384F83930B6F5006F22681CD00E
:101338000BD8B6F5007F13D0B6F5806F12D0B6F58E
:10134800807F21D1E069164B16E0B6F5005F0ED01C
:10135800B6F5804F0ED0B6F5805F15D1E06A02E091
:10136800206A00E0606A0F4B06E0A06AFBE7206B8A
:101378000D4B01E0606B0D4BC3630D4B83642B0A6F
:101388004C32013302F0E7F923683D439D64DA6883
:101398001643DE60012384F839300020F8BD00BF11
:1013A8000118000827180008E73200087D1900080E
:1013B8008F1900080368DA6822EA0101D960002061
:1013C80070472DE97841044690F83900069DC0B26F
:1013D8000228164688461A4645D094F83900C0B205
:1013E800012805D10BB9002D3DD1022384F83930ED
:1013F800B6F5006F21681CD00BD8B6F5007F13D066
:10140800B6F5806F12D0B6F5807F21D1E069174B11
:1014180016E0B6F5005F0ED0B6F5804F0ED0B6F5E3
:10142800805F15D1E06A02E0206A00E0606A104B34
:1014380006E0A06AFBE7206B0E4B01E0606B0E4BE9
:10144800C3630E4B83642B0A4C31013302F083F9DA
:10145800236845EA08059D64DA681643DE600123BF
:1014680084F839300020BDE8788100BF01180008F1
:1014780015180008E73200087D1900088F190008C0
:101488000368DA6822EA0101D9600020704790F801
:101498003830012B4FF0020309D080F83930036847
:1014A8005961012380F83930002380F83830184614
:1014B800704790F83830012B70B54FF0020351D0C7
:1014C80080F839304B680124A34280F838400BD1AA
:1014D80003688C689E68CD6826F47F4625430C69AE
:1014E800354345EA04249C600C2A35D8DFE802F02D
:1014F80007343434123434341E34343429000A683E
:1015080003681AB19A6942F0800209E09A6922F0E8
:10151800800205E00A68036822B19A6942F4004231
:101528009A6119E09A6922F40042F9E70A680368A7
:101538001AB1DA6942F080020DE0DA6922F080021D
:1015480009E00A6803681AB1DA6942F4004202E065
:10155800DA6922F40042DA61012380F83930002385
:1015680080F83830184670BD90F83830012B30B507
:101578004FF0020300F0B08080F839300368012290
:1015880080F838209A6822F47F4222F077029A6025
:101598000A68402A77D018D8102A00F08B8008D81B
:1015A800002A40F093809A6822F0700242F0070205
:1015B8008BE0202A00F08480302A40F087809A68E7
:1015C80022F0700242F037027FE0702A35D01BD833
:1015D800502A41D0602A79D11A6A4C68CD6822F025
:1015E80010021A6299691A6A21F4704122F0A00265
:1015F80042EA041241EA053199611A629A6822F0B6
:10160800700242F0670260E0B2F5805F11D0B2F577
:10161800005F5BD19D684C688A6825F47F4522434A
:10162800CC682A4342EA04229A609A6842F48042CB
:101638004BE09A6822F0070247E09D684C688A6888
:1016480025F47F452243CC682A4342EA04229A6063
:101658009A6842F0770238E01A6A4C68CD68196ACD
:1016680021F001011962996922F00A0221F0F001C2
:10167800224341EA051199611A629A6822F07002C0
:1016880042F0570221E01A6A4C68CD68196A21F0C5
:1016980001011962996922F00A0221F0F00122433E
:1016A80041EA051199611A629A6822F0700242F0C3
:1016B80047020AE09A6822F0700242F0170204E03A
:1016C8009A6822F0700242F027029A60012380F89B
:1016D8003930002380F83830184630BD03685A681E
:1016E80022F08002114359600020704790F838308A
:1016F800012B30B54FF0020358D080F83930036819
:101708000C689D68012280F838204A6825F0700529
:10171800154325F007052C43502A9C601ED00DD890
:10172800402A3DD11A6A1C6A096924F001041C6226
:101738009C6924F0F00444EA01112FE0602A1DD0CE
:10174800702A2DD18C689D68CA6825F47F4522438C
:101758000C692A4342EA04229A6021E01A6A8C68DA
:101768000D69196A21F001011962996922F00A02CA
:1017780021F0F00141EA051122430FE01A6A8C6852
:101788000D6922F010021A6299691A6A21F47041EF
:1017980022F0A00241EA053142EA041299611A6274
:1017A800012380F83930002380F83830184630BDDE
:1017B80090F83830012B1CD00C2914D8DFE801F040
:1017C800071313130A1313130D13131310000368CD
:1017D8005B6B09E003689B6B06E00368DB6B03E067
:1017E80003681B6C00E00023002280F838201846AC
:1017F800704702207047704708B5806B012380F856
:101808003930FFF7F8FF08BD7047704708B5806B9F
:10181800012380F83930FFF7F8FF08BD704708B595
:10182800806B012380F83930FFF7F8FF08BD704757
:1018380003681A69910710B5044614D5DA68920747
:1018480011D56FF002021A619B6901229B0702768B
:1018580002D0FFF7DAFF04E0FFF7D6FF2046FFF7D4
:10186800DDFF0023237623681A69500716D5DA6846
:10187800510713D56FF004021A619B69022213F411
:10188800407F2276204602D0FFF7BFFF04E0FFF733
:10189800BBFF2046FFF7C2FF0023237623681A699F
:1018A800120715D5DA68100712D56FF008021A6109
:1018B800DB69042299072276204602D0FFF7A5FFAC
:1018C80004E0FFF7A1FF2046FFF7A8FF00232376D7
:1018D80023681A69D20616D5DA68D00613D56FF0D0
:1018E80010021A61DB69082213F4407F2276204631
:1018F80002D0FFF78AFF04E0FFF786FF2046FFF7D4
:101908008DFF0023237623681A69D10708D5DA6882
:10191800D20705D56FF001021A612046FFF76BFF69
:1019280023681A69100608D5DA68110605D56FF01C
:1019380080021A61204601F0DAFC23681A6952060F
:1019480008D5DA68500605D56FF040021A612046BE
:10195800FFF76DFF23681A6991060AD5DA689206BF
:1019680007D56FF0200220461A61BDE8104001F04B
:10197800B5BC10BD08B5806B012380F83930FFF77E
:1019880056FF08BD704708B5806B012380F83930D1
:10199800FFF7F8FF08BD90F83900704790F8390054
:1019A800704790F83900704790F83900704790F800
:1019B8003900704790F8390070472F4A0368904201
:1019C80012D0B0F1804F0FD0A2F57C4290420BD0DC
:1019D80002F58062904207D002F58062904203D0FF
:1019E80002F57842904218D14A6823F070031343F5
:1019F800214A904237D0B0F1804F34D01F4A9042EC
:101A080031D002F5806290422DD002F5806290427A
:101A180029D002F57842904225D0194A904222D026
:101A280002F5806290421ED002F5806290421AD080
:101A3800A2F59832904216D002F58062904212D0F8
:101A480002F5806290420ED003608B68C3620B6817
:101A58008362094B98420BD003F58063984207D004
:101A6800012343617047CA6823F440731343EBE7CB
:101A78000B690363F4E700BF000001400004004065
:101A88000040014010B5044680B190F839300BB9D8
:101A9800FFF7B4F8022384F839302068211DFFF7D6
:101AA8008CFF012384F83930002010BD012010BDBF
:101AB80010B5044680B190F839300BB9FFF744F9F6
:101AC800022384F839302068211DFFF776FF0123AF
:101AD80084F83930002010BD012010BD10B504462F
:101AE80080B190F839300BB9FFF74DF9022384F82B
:101AF80039302068211DFFF760FF012384F8393051
:101B0800002010BD012010BD10B5044680B190F82A
:101B180039300BB9FFF756F9022384F839302068B9
:101B2800211DFFF74AFF012384F83930002010BD3A
:101B3800012010BD38B50D460446C0B190F83930C3
:101B48000BB9FFF75EF9022384F839302068211DAC
:101B5800FFF733FF23681A6822F008021A601A6830
:101B680015431D60012384F83930002038BD012059
:101B780038BDF8B50C46054600283ED090F83930F7
:101B88000BB9FFF715FA2946022351F8040B85F81B
:101B98003930836823F007038360FFF70EFF2B6853
:101BA80021689F689A692069E669D3F820C00F43C5
:101BB80022F44072A16922F0030242EA01220001E4
:101BC800A16840EA0626E0680A43216A304322F405
:101BD8007C4222F0FC0240EA0131114362696068EC
:101BE8009F602CF0AA0C4CEA0212024399611A6217
:101BF800012385F839300020F8BD0120F8BD036ABB
:101C080023F010030362026A436830B585690C68E3
:101C180025F4E64545EA04258C6822F0200242EACC
:101C280004120E4CA04209D004F58064A04205D0ED
:101C380043604B6885618363026230BDCC6822F0E3
:101C4800800242EA04124C6923F4406343EA8403A5
:101C58008C6922F0400243EA8403E9E7000001406E
:101C680038B590F83830012B04464FF0020024D0E4
:101C7800012384F8383084F839001D460C2A17D817
:101C8800DFE802F0071616160B1616160F161616AC
:101C980013002068FEF72EFF0AE02068FFF7AFFF69
:101CA80006E02068FEF752FF02E02068FEF77EFF9C
:101CB800002084F8395084F8380038BD38B590F8D9
:101CC8003830012B04460D464FF0020058D001234E
:101CD80084F8383084F839000C2A4BD8DFE802F051
:101CE800074A4A4A174A4A4A294A4A4A390020684A
:101CF800FEF700FF23689A6942F008029A619A6920
:101D080022F004029A6199692A690A430FE020685F
:101D1800FFF775FF236829699A6942F400629A619E
:101D28009A6922F480629A619A6942EA01229A6168
:101D380020E02068FEF70AFF2368DA6942F008020B
:101D4800DA61DA6922F00402DA61D9692A690A4398
:101D58000FE02068FEF72AFF23682969DA6942F450
:101D68000062DA61DA6922F48062DA61DA6942EAE9
:101D78000122DA610123002084F8393084F8380020
:101D880038BD70B5046A194E24F0010404628469F0
:101D9800056AB04224F003041AD0B0F1804F17D07E
:101DA800A6F57C46B04213D006F58066B0420FD047
:101DB80006F58066B0420BD006F57846B04207D0EB
:101DC80006F57056B04203D0A6F59436B0420AD153
:101DD800224322F0F00225F00A0542EA03132943C0
:101DE8008361016270BD44F00102F2E70000014026
:101DF800F8B590F83830012B04460D464FF0020034
:101E080075D0012384F8383084F8390072B906C9CE
:101E1800EB682068FFF7B5FF23689A6922F00C0287
:101E28009A619969AA680A439A615AE0042A95E86E
:101E3800410023688968ED681CD11A6A22F01002F3
:101E48001A629F691A6A27F4407747EA062622F041
:101E5800A00226F4704642EA001046EA05359D6164
:101E680018629A6922F440629A619A6942EA0121E9
:101E7800996136E0082A1A6A18D122F480721A6227
:101E8800DF691A6A27F003073E4322F4206226F02E
:101E9800F00642EA002046EA0515DD611862DA69B3
:101EA80022F00C02DA61DA69114319E022F4805257
:101EB8001A62DF691A6A27F4407747EA062622F48D
:101EC800204226F4704642EA003046EA0535DD61D4
:101ED8001862DA6922F44062DA61DA6942EA0121B9
:101EE800D9610123002084F8393084F83800F8BD1E
:101EF80070B59A4288B005460C461E466BD090F8DD
:101F08003830012B4FF0020066D0012385F83830B5
:101F18000B6885F8390001934B6802938B6803932B
:101F2800CB6804930B6906934B69079332B1042A73
:101F380008D1286801A9FFF762FE03E0286801A913
:101F4800FEF7D8FD2EB3042E3ED12B68A0691A6A7D
:101F5800E669246A22F010021A6299691A6A21F461
:101F6800407141EA062121F4704122F0A00242EAC0
:101F7800001241EA043199611A629A6922F44062B6
:101F88009A619A6822F070029A609A6842F0600238
:101F980011E004F118010EC92868FFF7F2FE2B685A
:101FA8009A6922F00C029A619A6822F070029A608B
:101FB8009A6842F050029A609A6822F007029A6082
:101FC8009A6842F006029A600123002085F83930A9
:101FD80085F8380000E0012008B070BD10B5012375
:101FE800046A8B4024EA03030362036A8A401343AA
:101FF800036210BD10B5044601220068FFF7EEFF2A
:102008002368084A934203D002F58062934203D1C1
:102018005A6C42F400425A641A6842F001021A608B
:10202800002010BD0000014010B5044600220068E1
:10203800FFF7D4FF2368124A934203D002F5806267
:1020480093420DD1196A41F211120A4042B9196A34
:1020580040F244420A401AB95A6C22F400425A64C7
:10206800196A41F211120A4042B9196A40F244420F
:102078000A401AB91A6822F001021A60002010BD3D
:102088000000014010B504460C291CD8DFE801F017
:10209800071B1B1B0C1B1B1B111B1B1B16000368A0
:1020A800DA6842F002020DE00368DA6842F00402DE
:1020B80008E00368DA6842F0080203E00368DA68B7
:1020C80042F01002DA6001222068FFF787FF2368D8
:1020D800084A934203D002F58062934203D15A6CB6
:1020E80042F400425A641A6842F001021A60002061
:1020F80010BD00BF0000014010B504460C291CD8D3
:10210800DFE801F0071B1B1B0C1B1B1B111B1B1BF8
:1021180016000368DA6822F002020DE00368DA6844
:1021280022F0040208E00368DA6822F0080203E0FB
:102138000368DA6822F01002DA6000222068FFF7EC
:102148004DFF2368124A934203D002F580629342FE
:102158000DD1196A41F211120A4042B9196A40F2C6
:1021680044420A401AB95A6C22F400425A64196A65
:1021780041F211120A4042B9196A40F244420A4037
:102188001AB91A6822F001021A60002010BD00BFB7
:102198000000014038B5044690F83900C0B2022862
:1021A8000D46114665D094F83900C0B2012805D112
:1021B8000AB9002B5DD1022284F839200C2D40D8B1
:1021C800DFE805F0073F3F3F153F3F3F233F3F3FD5
:1021D8003100206A274AC263274A8264226834325F
:1021E80001F0B9FA2368DA6842F4007228E0606AFC
:1021F800204AC263204A82642268383201F0ABFA6E
:102208002368DA6842F480621AE0A06A194AC26355
:10221800194A826422683C3201F09DFA2368DA6820
:1022280042F400620CE0E06A124AC263124A826415
:102238002268403201F08FFA2368DA6842F480524B
:10224800DA60012220682946FFF7C8FE23680B4A96
:10225800934209D002F58062934205D01A6842F091
:1022680001021A60002038BD5A6C42F400425A64D8
:10227800F4E738BD271800088F190008000001404E
:1022880010B504460C291CD8DFE801F0071B1B1BFE
:102298000C1B1B1B111B1B1B16000368DA6822F49E
:1022A80000720DE00368DA6822F4806208E00368CF
:1022B800DA6822F4006203E00368DA6822F48052E4
:1022C800DA6000222068FFF789FE2368134A9342E8
:1022D80003D002F5806293420DD1196A41F21112BE
:1022E8000A4042B9196A40F244420A401AB95A6C83
:1022F80022F400425A64196A41F211120A4042B9A2
:10230800196A40F244420A401AB91A6822F00102D6
:102318001A60012384F83930002010BD0000014004
:1023280010B5044601220068FFF758FE2368084AE2
:10233800934203D002F58062934203D15A6C42F46F
:1023480000425A641A6842F001021A60002010BD67
:102358000000014010B5044600220068FFF73EFE69
:102368002368144A934203D002F5806293420DD148
:10237800196A41F211120A4042B9196A40F24442FC
:102388000A401AB95A6C22F400425A64196A41F296
:1023980011120A4042B9196A40F244420A401AB975
:1023A8001A6822F001021A60012384F839300020EB
:1023B80010BD00BF0000014010B504460C291CD810
:1023C800DFE801F0071B1B1B0C1B1B1B111B1B1B36
:1023D80016000368DA6842F002020DE00368DA6862
:1023E80042F0040208E00368DA6842F0080203E0F9
:1023F8000368DA6842F01002DA6001222068FFF709
:10240800EDFD2368084A934203D002F580629342A7
:1024180003D15A6C42F400425A641A6842F001022D
:102428001A60002010BD00BF0000014010B504462E
:102438000C291CD8DFE801F0071B1B1B0C1B1B1BFE
:10244800111B1B1B16000368DA6822F002020DE05C
:102458000368DA6822F0040208E00368DA6822F008
:10246800080203E00368DA6822F01002DA6000224A
:102478002068FFF7B3FD2368124A934203D002F5A0
:10248800806293420DD1196A41F211120A4042B991
:10249800196A40F244420A401AB95A6C22F40042BE
:1024A8005A64196A41F211120A4042B9196A40F293
:1024B80044420A401AB91A6822F001021A60002040
:1024C80010BD00BF0000014038B5044690F839003F
:1024D800C0B202280D46114665D094F83900C0B242
:1024E800012805D10AB9002B5DD1022284F83920D0
:1024F8000C2D40D8DFE805F0073F3F3F153F3F3F31
:10250800233F3F3F3100206A274AC263274A82643B
:102518002268343201F01FF92368DA6842F4007245
:1025280028E0606A204AC263204A826422683832FE
:1025380001F011F92368DA6842F480621AE0A06AAF
:10254800194AC263194A826422683C3201F003F9CD
:102558002368DA6842F400620CE0E06A124AC26357
:10256800124A82642268403201F0F5F82368DA687A
:1025780042F48052DA60012220682946FFF72EFDD6
:1025880023680B4A934209D002F58062934205D032
:102598001A6842F001021A60002038BD5A6C42F4F1
:1025A80000425A64F4E738BD271800088F1900085C
:1025B8000000014010B504460C291CD8DFE801F0E2
:1025C800071B1B1B0C1B1B1B111B1B1B160003686B
:1025D800DA6822F400720DE00368DA6822F4806297
:1025E80008E00368DA6822F4006203E00368DA6846
:1025F80022F48052DA6000222068FFF7EFFC23689B
:10260800134A934203D002F5806293420DD1196AAE
:1026180041F211120A4042B9196A40F244420A4092
:102628001AB95A6C22F400425A64196A41F211121A
:102638000A4042B9196A40F244420A401AB91A6873
:1026480022F001021A60012384F83930002010BDFD
:102658000000014010B5044601220068FFF7BEFCE7
:1026680023681A6842F001021A60002010BD10B5F4
:10267800044600220068FFF7B1FC2368196A41F29A
:1026880011120A4042B9196A40F244420A401AB982
:102698001A6822F001021A60002010BD10B5044625
:1026A8000C291CD8DFE801F0071B1B1B0C1B1B1B8C
:1026B800111B1B1B16000368DA6842F002020DE0CA
:1026C8000368DA6842F0040208E00368DA6842F056
:1026D800080203E00368DA6842F01002DA60206852
:1026E8000122FFF77BFC23681A6842F001021A6096
:1026F800002010BD10B504460C291CD8DFE801F0F5
:10270800071B1B1B0C1B1B1B111B1B1B1600036829
:10271800DA6822F002020DE00368DA6822F00402A7
:1027280008E00368DA6822F0080203E00368DA6860
:1027380022F01002DA6000222068FFF74FFC2368BD
:10274800196A41F211120A4042B9196A40F2444228
:102758000A401AB91A6822F001021A60002010BD56
:1027680038B5044690F83900C0B202280D4658D052
:1027780094F83900C0B2012805D10AB9002B50D10C
:10278800022184F839100C2D40D8DFE805F0073F06
:102798003F3F153F3F3F233F3F3F3100206A2149DC
:1027A800C163214981642168343100F0D4FF236872
:1027B800DA6842F4007228E0606A1A49C1631A496B
:1027C80081642168383100F0C6FF2368DA6842F472
:1027D80080621AE0A06A1349C163134981642168C1
:1027E8003C3100F0B8FF2368DA6842F400620CE07C
:1027F800E06A0C49C1630C4981642168403100F0EA
:10280800AAFF2368DA6842F48052DA60206801225D
:102818002946FFF7E3FB23681A6842F001021A60B1
:10282800002038BD151800088F19000810B5044697
:102838000C291CD8DFE801F0071B1B1B0C1B1B1BFA
:10284800111B1B1B16000368DA6822F400720DE0E6
:102858000368DA6822F4806208E00368DA6822F420
:10286800006203E00368DA6822F48052DA6000222A
:102878002068FFF7B3FB2368196A41F211120A4076
:1028880042B9196A40F244420A401AB91A6822F059
:1028980001021A60012384F83930002010BD00BFFE
:1028A80010B50423046A8B4024EA03030362036A15
:1028B8008A401343036210BD704770B50E4688B056
:1028C8000446002846D0022380F83930FFF7F4FF89
:1028D8002068211DFFF771F820683168B36803226A
:1028E800FFF74FFA2068836923F00C03836182693C
:1028F800736813438361436843F0800343608368CC
:1029080023F070038360836843F040038360836827
:1029180023F007038360836843F004038360702314
:102928000193F368002501A902930595069507957B
:1029380004950395FFF763F923685A6822F070023B
:102948005A605A6842F050025A60012384F83930BC
:10295800284600E0012008B070BD7047022310B57A
:1029680080F839300368196A41F211120A400446A6
:1029780042B9196A40F244420A401AB91A6822F068
:1029880001021A602046FFF7E8FF002084F83900AA
:1029980084F8380010BD10B50446002100680122F3
:1029A800FFF71CFB23681A6842F001021A60002036
:1029B80010BD002110B504460A460068FFF70EFB5B
:1029C8002368196A41F211120A4042B9196A40F2A1
:1029D80044420A401AB91A6822F001021A6000201B
:1029E80010BD10B504460068C26842F00202C26019
:1029F80000210122FFF7F2FA23681A6842F0010267
:102A08001A60002010BD002110B504460A4600686F
:102A1800FFF7E4FA2368DA6822F00202DA60196A3A
:102A280041F211120A4042B9196A40F244420A407E
:102A38001AB91A6822F001021A60002010BD70B598
:102A4800044690F83900C0B202280E46154623D035
:102A580094F83900C0B2012804D101B9E2B90223BF
:102A680084F83930206800210122FFF7B7FA206A7C
:102A78000A4B2168C3630A4B3246836434312B46C0
:102A880000F069FE2368DA6842F40072DA601A68B6
:102A980042F001021A60002070BD00BF151800083E
:102AA8008F190008002110B504460A460068FFF790
:102AB80095FA2368DA6822F40072DA60196A41F23A
:102AC80011120A4042B9196A40F244420A401AB93E
:102AD8001A6822F001021A60002010BD10B50446E1
:102AE80004220068FFF7DCFE23685A6C42F40042B7
:102AF8005A641A6842F001021A60002010BD10B52D
:102B0800044600220068FFF7CBFE2368196A41F2E9
:102B180011120A4042B9196A40F244420A401AB9ED
:102B28005A6C22F400425A64196A41F211120A409E
:102B380042B9196A40F244420A401AB91A6822F0A6
:102B480001021A60002010BD10B504460C291CD8DB
:102B5800DFE801F0071B1B1B0C1B1B1B111B1B1B9E
:102B680016000368DA6842F002020DE00368DA68CA
:102B780042F0040208E00368DA6842F0080203E061
:102B88000368DA6842F01002DA6020680422FFF76E
:102B980087FE23685A6C42F400425A641A6842F06D
:102BA80001021A60002010BD10B504460C291CD87B
:102BB800DFE801F0071B1B1B0C1B1B1B111B1B1B3E
:102BC80016000368DA6822F002020DE00368DA688A
:102BD80022F0040208E00368DA6822F0080203E041
:102BE8000368DA6822F01002DA6000222068FFF732
:102BF80057FE2368196A41F211120A4042B9196A4C
:102C080040F244420A401AB95A6C22F400425A640B
:102C1800196A41F211120A4042B9196A40F2444253
:102C28000A401AB91A6822F001021A60002010BD81
:102C380038B5044690F83900C0B202280D4611464E
:102C48005CD094F83900C0B2012805D10AB9002B2C
:102C580054D1022284F839200C2D40D8DFE805F041
:102C6800073F3F3F153F3F3F233F3F3F3100206A2B
:102C7800234AC263234A82642268343200F06BFD1F
:102C88002368DA6842F4007228E0606A1C4AC2636A
:102C98001C4A82642268383200F05DFD2368DA68D5
:102CA80042F480621AE0A06A154AC263154A826437
:102CB80022683C3200F04FFD2368DA6842F4006273
:102CC8000CE0E06A0E4AC2630E4A8264226840320F
:102CD80000F041FD2368DA6842F48052DA60206827
:102CE80004222946FFF7DCFD23685A6C42F40042AF
:102CF8005A641A6842F001021A60002038BD00BF09
:102D0800271800088F19000810B504460C291CD88C
:102D1800DFE801F0071B1B1B0C1B1B1B111B1B1BDC
:102D280016000368DA6822F400720DE00368DA68B6
:102D380022F4806208E00368DA6822F4006203E0A3
:102D48000368DA6822F48052DA6000222068FFF70C
:102D5800A7FD2368196A41F211120A4042B9196A9B
:102D680040F244420A401AB95A6C22F400425A64AA
:102D7800196A41F211120A4042B9196A40F24442F2
:102D88000A401AB91A6822F001021A60012384F86D
:102D98003930002010BD10B5044604220068FFF742
:102DA8007FFD23685A6C42F400425A641A6842F064
:102DB80001021A60002010BD10B504460022006808
:102DC800FFF76EFD2368196A41F211120A4042B9F1
:102DD800196A40F244420A401AB95A6C22F4004275
:102DE8005A64196A41F211120A4042B9196A40F24A
:102DF80044420A401AB91A6822F001021A600020F7
:102E080010BD10B5044600680C2918D8DFE801F099
:102E1800071717170B1717170F1717171300C2687D
:102E280042F002020AE0C26842F0040206E0C26808
:102E380042F0080202E0C26842F01002C260C268B2
:102E480042F08002C2600422FFF72AFD23685A6C10
:102E580042F400425A641A6842F001021A600020E3
:102E680010BD10B5044600680C2918D8DFE801F039
:102E7800071717170B1717170F1717171300C2681D
:102E880022F002020AE0C26822F0040206E0C268E8
:102E980022F0080202E0C26822F01002C260C26892
:102EA80022F08002C2600022FFF7FAFC2368196A48
:102EB80041F211120A4042B9196A40F244420A40EA
:102EC8001AB95A6C22F400425A64196A41F2111272
:102ED8000A4042B9196A40F244420A401AB91A68CB
:102EE80022F001021A60002010BD38B5044690F89F
:102EF8003900C0B202280D4611465CD094F839005A
:102F0800C0B2012805D10AB9002B54D1022284F895
:102F180039200C2D40D8DFE805F0073F3F3F153F2B
:102F28003F3F233F3F3F3100206A234AC263234A81
:102F380082642268343200F00EFC2368DA6842F4B6
:102F4800007228E0606A1C4AC2631C4A82642268D4
:102F5800383200F000FC2368DA6842F480621AE034
:102F6800A06A154AC263154A826422683C3200F09E
:102F7800F2FB2368DA6842F400620CE0E06A0E4A69
:102F8800C2630E4A82642268403200F0E4FB236880
:102F9800DA6842F48052DA60206804222946FFF792
:102FA8007FFC23685A6C42F400425A641A6842F063
:102FB80001021A60002038BD271800088F19000880
:102FC80010B504460C291CD8DFE801F0071B1B1BB1
:102FD8000C1B1B1B111B1B1B16000368DA6822F451
:102FE80000720DE00368DA6822F4806208E0036882
:102FF800DA6822F4006203E00368DA6822F4805297
:10300800DA6000222068FFF74BFC2368196A41F256
:1030180011120A4042B9196A40F244420A401AB9E8
:103028005A6C22F400425A64196A41F211120A4099
:1030380042B9196A40F244420A401AB91A6822F0A1
:1030480001021A60012384F83930002010BD10B540
:10305800044604220068FFF723FC23685A6C42F4F4
:1030680000425A64002010BD10B5044600220068D2
:10307800FFF716FC2368196A41F211120A4042B997
:10308800196A40F244420A401AB95A6C22F40042C2
:103098005A64196A41F211120A4042B9196A40F297
:1030A80044420A401AB91A6822F001021A60002044
:1030B80010BD10B504460068C26842F00202C26042
:1030C800C26842F00402C2600422FFF7E9FB2368E9
:1030D8005A6C42F400425A64002010BD10B50446F0
:1030E8000068C26822F00202C260C26822F00402CC
:1030F800C2600022FFF7D4FB2368196A41F211125B
:103108000A4042B9196A40F244420A401AB95A6C54
:1031180022F400425A64196A41F211120A4042B973
:10312800196A40F244420A401AB91A6822F00102A8
:103138001A60002010BD90F83830012B10B51DD052
:10314800012380F8383031F03003036806D19C68D9
:1031580024F070049C609C6821439960596841F090
:1031680001015960596821F00401596059680A43FE
:103178005A60002380F83830184610BD022010BD70
:1031880090F83830012B10B521D0012380F8383061
:1031980031F03003036806D19C6824F070049C6009
:1031A8009C6821439960596841F001015960596848
:1031B80021F00401596059680A435A60DA6842F0FC
:1031C8002002DA60002380F83830184610BD02204B
:1031D80010BD90F83830012B10B526D0012380F8A7
:1031E800383031F03003036806D19C6824F070044D
:1031F8009C609C6821439960596841F001015960BD
:10320800596821F00401596059680A435A6008490D
:10321800026BD16307499164DA6842F40052DA60BC
:10322800002380F83830184610BD022010BD00BFBA
:10323800E73200088F19000890F83830012B10B5D4
:103248004FF0020318D080F8393003685A6822F02A
:1032580070025A605C680A6822435A609A6822F0D1
:1032680080029A609C684A6822439A60012380F829
:103278003930002380F83830184610BD90F83830BF
:10328800012B10B54FF0020316D091E81400144337
:103298008A6880F839301443CA68036814430A6995
:1032A80014434A69896922430A435A64012380F80E
:1032B8003930002380F83830184610BD90F838307F
:1032C800012B09D003681965012380F839300023E0
:1032D80080F838301846704702207047704708B5A4
:1032E800806B012380F83930FFF7F8FF08BD70477D
:1032F80090F83900704700BF30B500282FD002235E
:1033080080F83530036817491A68846811404268A4
:103318001443C2681443026914434269144382691E
:103328001443C2692243046A22430A43416A0429B6
:1033380003D1056BC46A2C4322431A605A690429D5
:1033480022F0070242EA010204BF816A0A435A6175
:1033580000230122C36480F83520184630BD0120BF
:1033680030BD00BF3F8014F0002800F0C78190F8FE
:103378003530022B00F0C28103681A6822F001027E
:103388001A6000221A605A609A60DA601A61212273
:103398005A61AE4A934218D9183293420AD0183269
:1033A800934209D0183293420CBF4FF480224FF059
:1033B800807203E0A64A01E04FF48072A549CA6012
:1033C800A54A934253D120225EE0A44A934219D9D8
:1033D80002F5567293420AD01832934209D0183235
:1033E80093420CBF4FF480224FF0807203E0984A5A
:1033F80001E04FF4807297498A60994A934249D113
:10340800202254E0974A934218D9183293420AD09E
:103418001832934209D0183293420CBF4FF48022DD
:103428004FF0807203E08A4A01E04FF480728E49BF
:10343800CA608E4A934240D120224BE08C4A934284
:103448000AD01832934209D0183293420CBF4FF475
:1034580080224FF0807203E07D4A01E04FF48072D1
:1034680081498A60824A93423AD1202245E0814AC2
:10347800934207D0183293420CBF4FF400124FF01A
:10348800006201E04FF40062CA60734A93423AD185
:10349800082245E0784A934207D0183293420CBF7D
:1034A8004FF400124FF0006201E04FF400628A60AE
:1034B8006B4A93423BD1082246E0704A934207D0B8
:1034C800183293420CBF4FF400124FF0006201E033
:1034D8004FF40062CA60654A93423CD1082247E033
:1034E800674A934207D0183293420CBF4FF4001238
:1034F8004FF0006201E04FF400628A605C4A934238
:103508003DD1082248E05B4A934207D018329342E3
:103518000CBF4FF400224FF0007201E04FF400722C
:103528004C49CA604C4A93423DD1564A47E0524AF8
:10353800934207D0183293420CBF4FF400224FF049
:10354800007201E04FF4007242498A60444A934293
:103558003BD14C4A45E0494A934207D0183293423E
:103568000CBF4FF400224FF0007201E04FF40072DC
:103578003D49CA603D4A934239D1424A43E0404AF4
:10358800934207D0183293420CBF4FF400224FF0F9
:10359800007201E04FF4007233498A60344A934262
:1035A80037D1384A41E0334A934207D01832934220
:1035B8000CBF4FF480324FF4800200E04022CA6012
:1035C800254A934237D1102360E02B4A934207D013
:1035D800183293420CBF4FF480324FF4800200E05F
:1035E80040228A601E4A934252D110235DE0234A4A
:1035F800934207D0183293420CBF4FF480324FF4F5
:10360800800200E04022CA60184A93424FD110233A
:103618005AE01B4A934207D0183293420CBF4FF42A
:1036280080324FF4800200E040228A60104A9342C0
:103638004DD1102358E00F4A934225D018329342B7
:1036480014BF4FF080634FF480131FE058640240AA
:10365800040080000064024070640240B8600240C8
:1036680010640240586002400060024070600240EE
:10367800106002408864024028640240886002406A
:1036880028600240010080004FF480631C4A1CE05F
:103698001C4A934207D01832934214BF4FF08063FC
:1036A8004FF4801301E04FF48063154A1DE0164A79
:1036B800934207D01832934214BF4FF080634FF4FF
:1036C800801301E04FF48063104AD3600EE0104A83
:1036D800934207D01832934214BF4FF080634FF4DF
:1036E800801301E04FF48063084A93600023C364A9
:1036F80080F8343080F8353018467047012070471C
:103708000064024028640240886002400060024071
:103718002860024030B590F83440012C4FF0020484
:1037280017D080F835400468012580F834502568A2
:1037380025F00105256063608368402B0BBFA260FC
:10374800A160E160E260236843F001032360002088
:1037580030BD204630BD30B590F83440012C4FF0D4
:1037680002042BD080F835400468012580F83450D5
:10377800256825F00105256063608368402B0BBF31
:10378800A260A160E160E260236843F01003236057
:10379800236843F008032360236843F0040323608D
:1037A800636943F080036361236843F00203236085
:1037B800236843F001032360002030BD204630BD5C
:1037C80038B503681A6822F001021A60044601F04D
:1037D800C7F9054623681B6813F0010310D001F0F0
:1037E800BFF9401BB0F57A7FF4D9E36C43F02003AE
:1037F800E3640320002384F8343084F8350038BDAE
:10380800012284F8343084F83520184638BD03681E
:103818002DE9F04723F48063914604468846AD4A73
:10382800B1B993422BD06032934228D0483A9342A0
:1038380027D06032934224D0483A934202D14FF4C1
:10384800001525E0A44A9342F9D04FF000651FE027
:10385800934219D0A14A934216D0483A934215D0C0
:103868006032934212D0483A934202D14FF4801505
:103878000EE0994A9342F9D04FF0806508E0202580
:1038880006E04FF4006503E0102501E04FF4806581
:1038980001F066F982462368914A934232D9583A30
:1038A80051680D4240F0938151688E4A93420AD084
:1038B8001832934209D01832934214BF4FF0007265
:1038C8004FF4002203E0082201E04FF4007285481B
:1038D8000A4085498342496801D1844F0BE08448F6
:1038E800834207D0834FBB4214BF4FF480074FF485
:1038F800803700E040277B480F407B498342496876
:103908002AD127E07C4A934240F25A8102F552724A
:1039180011680D4240F05B811168784A934200F0CB
:103928005B811832934200F059811832934214BFD8
:103938004FF000724FF4002270480A406A498342EF
:10394800096840F04E81694F6C480F4066498342D0
:10395800096806D16A4E11E0654883420CD0654E6D
:1039680003E06848834207D0674EB34214BF4FF064
:1039780080764FF4802601E04FF480760E4022B91D
:10398800F7B9002E00F0018175E0E26C42F0010207
:10399800E264534A934240F2D783524A934200F07A
:1039A800CE831832934200F0CC831832934214BF6E
:1039B8004FF000724FF400224B49CA60002F5AD0D2
:1039C800E26C42F00202E264454A934212D918328C
:1039D80093420AD01832934209D01832934214BF46
:1039E8004FF480024FF4803202E0404A00E0402267
:1039F8003D492BE0404A934213D902F5567293424F
:103A08000AD01832934209D01832934214BF4FF4A7
:103A180080024FF4803202E0344A00E0402232490A
:103A280028E03A4A934213D9183293420AD01832FE
:103A3800934209D01832934214BF4FF480024FF4D6
:103A4800803202E0294A00E040223149CA6012E08F
:103A5800204A93420AD01832934209D0183293422E
:103A680014BF4FF480024FF4803202E01F4A00E096
:103A7800402227498A60002E7ED0E26C42F0040280
:103A8800E264174A934213D9183293420AD0183283
:103A9800934209D01832934214BF4FF080734FF409
:103AA800802303E0164B01E04FF480730E4A4DE08B
:103AB800114A934234D902F5567293422AD01832E9
:103AC800934229D01832934214BF4FF080734FF4B9
:103AD800802323E010600240A06002407060024032
:103AE8005864024070640240006402400100800093
:103AF80088640240A0640240B8600240106402403A
:103B0800040080002864024040640240586002407B
:103B180000600240A84B01E04FF48073A74A2AE0F6
:103B2800A74A934214D9183293420AD018329342C2
:103B380009D01832934214BF4FF080734FF480239A
:103B480003E09D4B01E04FF480739E4AD36013E07D
:103B58009D4A93420AD01832934209D018329342B0
:103B680014BF4FF080734FF4802303E0924B01E0C1
:103B78004FF48073934A9360042384F8353000230C
:103B880084F834300120BDE8F087B9F1FF3F3FF4F5
:103B980083AEB9F1000F0BD1E36C43F02003E3646B
:103BA8000320002384F8350084F83430BDE8F0871A
:103BB80000F0D6FFCAEB000048457FF66CAEEBE795
:103BC8007F4A804993424DD94A68154216D07F4AA8
:103BD800B8F1000F7DD0D5E10822ADE64FF40072B0
:103BE800AAE67B48834207D07A4FBB4214BF4FF402
:103BF80080074FF48037A7E64027A5E6764A49684C
:103C080093420AD01832934209D01832934214BF13
:103C18004FF000724FF4002203E0082201E04FF455
:103C280000726D480A4067498342496801D16B4F69
:103C38000BE06B48834207D06A4FBB4214BF4FF476
:103C480080074FF4803700E0402763480F405D4904
:103C5800834249683FF47EAE614883423FF48CAEAC
:103C6800604E82E60A681542B1D1574A0968934204
:103C78000AD01832934209D01832934214BF4FF039
:103C880000724FF4002203E0082201E04FF40072B2
:103C98004D480A404B498342096801D14F4F0BE018
:103CA8005148834207D0514FBB4214BF4FF480079D
:103CB8004FF4803700E0402743480F404149834292
:103CC80009683FF447AE484883423FF455AE474E33
:103CD8004BE619684E0340F1C580934218D9444A0F
:103CE80093420AD01832934209D0183293420CBF3B
:103CF8004FF480124FF0806203E0102201E04FF48D
:103D080080622E49CA603A4A934246D120228CE00A
:103D1800384A934214D902F5567293420AD018329F
:103D2800934209D0183293420CBF4FF480124FF0DF
:103D3800806203E0102201E04FF480621F492AE00C
:103D48001F4A934214D9183293420AD01832934228
:103D580009D0183293420CBF4FF480124FF08062A2
:103D680003E0102201E04FF480621649CA6045E082
:103D7800154A93420AD01832934209D01832934216
:103D88000CBF4FF480124FF0806203E0102201E074
:103D98004FF480620B498A6030E0174A934207D09B
:103DA8001832934214BF4FF000624FF400123CE007
:103DB8004FF4006239E000BF040080000064024054
:103DC800586002400060024010600240586402409F
:103DD8002864024040640240706002400100800094
:103DE80088600240A06002402860024040600240B3
:103DF80070640240B860024088640240B84A934246
:103E080015D8B84A934240F2EE811832934200F036
:103E1800E5811832934200F0E3811832934214BFCF
:103E28004FF000624FF40012AF49CA6010E0AF4A89
:103E3800934200F0CE811832934200F0CC811832C0
:103E4800934214BF4FF000624FF40012A8498A60F1
:103E58001A68150340F18E801B68180340F18D80A5
:103E6800212388E0934218D9A24A93420AD01832F3
:103E7800934209D0183293420CBF4FF480124FF08E
:103E8800806203E0102201E04FF480629849CA6022
:103E9800984A934246D1202351E0914A934214D93B
:103EA80002F5567293420AD01832934209D018325A
:103EB80093420CBF4FF480124FF0806203E010224F
:103EC80001E04FF480628A492AE0864A934214D975
:103ED800183293420AD01832934209D018329342CA
:103EE8000CBF4FF480124FF0806203E0102201E013
:103EF8004FF480627C49CA6023E07F4A93420AD02B
:103F08001832934209D0183293420CBF4FF48012F2
:103F18004FF0806203E0102201E04FF480627249A2
:103F28008A600EE0754A934207D01832934214BF54
:103F38004FF000634FF4001301E04FF40063CB60CF
:103F480018E0674A934200F26281664A934240F25F
:103F580077811832934200F06E811832934200F054
:103F68006C811832934214BF4FF000634FF4001372
:103F78005D4AD360112384F83530002084F834007A
:103F8800BDE8F0871968490369D5934213D9594A9E
:103F980093420AD01832934209D01832934214BF80
:103FA8004FF080624FF4801203E0102201E04FF4DA
:103FB80080624F492DE04A4A934214D902F556725D
:103FC80093420AD01832934209D01832934214BF50
:103FD8004FF080624FF4801203E0102201E04FF4AA
:103FE800806243492AE03F4A934214D918329342E7
:103FF8000AD01832934209D01832934214BF4FF0B6
:1040080080624FF4801203E0102201E04FF48062D6
:104018003549CA6013E0384A93420AD018329342AD
:1040280009D01832934214BF4FF080624FF48012C7
:1040380003E0102201E04FF480622B498A6018687F
:1040480010F4002004D1312384F83530BDE8F0871E
:10405800186810F4002000F0088141236AE09342B8
:1040680013D9244A93420AD01832934209D01832FD
:10407800934214BF4FF080634FF4801303E0102382
:1040880001E04FF480631A4A3DE0154A934214D97F
:1040980002F5567293420AD01832934209D0183268
:1040A800934214BF4FF080634FF4801303E0102352
:1040B80001E04FF480630E4A3AE00A4A934224D959
:1040C800183293420AD01832934219D018329342C8
:1040D80014BF4FF080634FF4801313E0102311E0F6
:1040E800B86002405860024000600240106402401C
:1040F800006402407064024010600240886402401C
:104108004FF480635A4AD36013E05A4A93420AD064
:104118001832934209D01832934214BF4FF080638B
:104128004FF4801303E0102301E04FF48063504AFA
:104138009360312384F835300020BDE8F0870822E9
:104148003AE44FF4007237E44B4A934214D902F52B
:10415800567293420AD01832934209D018329342C9
:1041680014BF4FF000724FF4002203E0082201E070
:104178004FF40072414929E0414A934213D9183259
:1041880093420AD01832934209D01832934214BF8E
:104198004FF000724FF4002203E0082201E04FF4D0
:1041A8000072334909E4334A93420AD018329342E1
:1041B80009D01832934214BF4FF000724FF4002216
:1041C80003E0082201E04FF4007229498A60FFF7F2
:1041D800F5BB20223AE64FF4006237E6202223E6B8
:1041E8004FF4006220E6234A93420AD018329342E1
:1041F80009D01832934214BF4FF000624FF40012F6
:1042080003E0202201E04FF4006219491FE61D4A2D
:1042180093420AD01832934209D01832934214BFFD
:104228004FF000634FF4001303E0202301E04FF444
:104238000063124A17E020239AE64FF4006397E6DA
:104248000C4A93420AD01832934209D0183293424A
:1042580014BF4FF000634FF4001303E0202301E084
:104268004FF40063024A936084E6BDE8F08700BF1C
:104278000060024010600240B860024000640240E2
:1042880058600240106402400368A64A934210B581
:10429800044603D952F8541C183210E0A24A93423B
:1042A80004D9D2F8481302F5567208E09F4A93429F
:1042B800A2F1580299BF11689D4A51687032934221
:1042C8000AD01832934209D01832934214BF4FF0E3
:1042D80000724FF4002203E0082201E04FF400725C
:1042E8000A420CBF00220122002A6FD01A68510727
:1042F8006CD51A6822F004021A608A4A934213D9CC
:10430800183293420AD01832934209D01832934295
:1043180014BF4FF000734FF4002303E0082301E0BB
:104328004FF40073834A2DE07F4A934214D902F573
:10433800567293420AD01832934209D018329342E7
:1043480014BF4FF000734FF4002303E0082301E08B
:104358004FF40073774A2AE0744A934214D918320A
:1043680093420AD01832934209D01832934214BFAC
:104378004FF000734FF4002303E0082301E04FF4EB
:1043880000736D4AD36013E0694A93420AD0183229
:10439800934209D01832934214BF4FF000734FF480
:1043A800002303E0082301E04FF40073624A93609E
:1043B800E36C43F00103E364042384F835300023FD
:1043C80084F83430A36C0BB1204698472368554ACB
:1043D800934203D952F8541C183210E0524A9342BF
:1043E80004D9D2F8481302F5567208E04F4A9342AE
:1043F800A2F1580299BF11684D4A51687032934230
:104408000AD01832934209D01832934214BF4FF49D
:1044180080024FF4803202E0484A00E040220A421B
:104428000CBF00220122002A6BD05A69120668D5F7
:104438005A6922F080025A613A4A934212D91832D4
:1044480093420AD01832934209D01832934214BFCB
:104458004FF480034FF4803302E0384B00E04023F0
:10446800344A2BE0304A934213D902F556729342EC
:104478000AD01832934209D01832934214BF4FF42D
:1044880080034FF4803302E02C4B00E04023294A9C
:1044980028E0264A934213D9183293420AD0183298
:1044A800934209D01832934214BF4FF480034FF45B
:1044B800803302E0214B00E040231F4AD36012E022
:1044C8001B4A93420AD01832934209D018329342B9
:1044D80014BF4FF480034FF4803302E0174B00E021
:1044E8004023154A9360E36C43F00203E36404231A
:1044F80084F83530002384F83430A36C0BB120469F
:1045080098472368074A934203D952F8541C183233
:104518001FE0054A934213D9D2F8481302F55672A0
:1045280017E000BF58640240B8600240586002407B
:1045380010600240006402400060024001008000F8
:10454800A44A9342A2F1580299BF1168A24A51683D
:10455800703293420AD01832934209D018329342EB
:1045680014BF4FF080724FF4802203E09B4A01E0B1
:104578004FF480720A420CBF00220122002A6FD039
:104588001A6890076CD51A6822F002021A60944AD9
:10459800934213D9183293420AD01832934209D061
:1045A8001832934214BF4FF080734FF4802303E016
:1045B8008A4B01E04FF480738A4A2DE08A4A93427D
:1045C80014D902F5567293420AD01832934209D090
:1045D8001832934214BF4FF080734FF4802303E0E6
:1045E8007E4B01E04FF480737E4A2AE0794A934279
:1045F80014D9183293420AD01832934209D018328B
:10460800934214BF4FF080734FF4802303E0734B41
:1046180001E04FF48073754AD36013E06E4A934209
:104628000AD01832934209D01832934214BF4FF07F
:1046380080734FF4802303E0684B01E04FF48073EC
:104648006A4A9360E36C43F00403E364042384F848
:104658003530002384F83430A36C0BB120469847DA
:1046680023685F4A934203D952F8541C183210E069
:104678005D4A934204D9D2F8481302F5567208E00D
:10468800544A9342A2F1580299BF1168524A51689C
:10469800703293420AD01832934209D018329342AA
:1046A80014BF4FF080624FF4801203E0102201E043
:1046B8004FF480620A420CBF00220122002A00F057
:1046C800E4801A68110740F1E0801A6812F4802F1C
:1046D800434A61D0934213D9183293420AD0183210
:1046E800934209D01832934214BF4FF080624FF4BE
:1046F800801203E0102201E04FF4806239492DE076
:10470800394A934214D902F5567293420AD01832A4
:10471800934209D01832934214BF4FF080624FF48D
:10472800801203E0102201E04FF480622D492AE054
:10473800284A934214D9183293420AD01832934225
:1047480009D01832934214BF4FF080624FF48012A0
:1047580003E0102201E04FF480622449CA6013E0AC
:104768001D4A93420AD01832934209D01832934214
:1047780014BF4FF080624FF4801203E0102201E072
:104788004FF4806219498A601A68120376D51B684B
:104798001B0376D5412372E01968C80503D419684C
:1047A80021F008011960934224D9114A93420AD092
:1047B8001832934209D01832934214BF4FF08063E5
:1047C8004FF4801303E0102301E04FF48063054A9F
:1047D8003EE000BF586002401060024004008000C4
:1047E8005864024000640240B86002400060024021
:1047F80070640240AA4A934214D902F55672934251
:104808000AD01832934209D01832934214BF4FF09D
:1048180080634FF4801303E0102301E04FF48063BA
:10482800A04A2AE0A04A934214D9183293420AD0E7
:104838001832934209D01832934214BF4FF0806364
:104848004FF4801303E0102301E04FF48063974A8C
:10485800D36013E0964A93420AD01832934209D0A3
:104868001832934214BF4FF080634FF4801303E073
:10487800102301E04FF480638C4A9360312384F85D
:104888003530236C0BB1204698472368894A9342F8
:1048980003D952F8541C183210E0814A934204D9C3
:1048A800D2F8481302F5567208E07F4A9342A2F103
:1048B800580299BF11687E4A5168703293420AD0F3
:1048C8001832934209D01832934214BF4FF0006255
:1048D8004FF4001203E0202201E04FF400620A4284
:1048E8000CBF00220122002A00F0D9801A68D106E4
:1048F80040F1D5801A6812F4802F6E4A62D0934234
:1049080013D9183293420AD01832934209D0183278
:10491800934214BF4FF000624FF4001203E02022CC
:1049280001E04FF400625F492DE05D4A934214D9DB
:1049380002F5567293420AD01832934209D01832BF
:10494800934214BF4FF000624FF4001203E020229C
:1049580001E04FF4006253492AE0534A934214D9C4
:10496800183293420AD01832934209D0183293422F
:1049780014BF4FF000624FF4001203E0202201E060
:104988004FF400624949CA6013E0494A93420AD089
:104998001832934209D01832934214BF4FF0006284
:1049A8004FF4001203E0202201E04FF400623F4977
:1049B8008A601A68120301D4636C6DE01B681803DF
:1049C8006DD568E01968C90503D4196821F010018C
:1049D8001960934213D9384A93420AD01832934245
:1049E80009D01832934214BF4FF000634FF40013FC
:1049F80003E0202301E04FF400632A4A2DE0284A0F
:104A0800934214D902F5567293420AD0183293424F
:104A180009D01832934214BF4FF000634FF40013CB
:104A280003E0202301E04FF400631E4A2AE01E4AF7
:104A3800934214D9183293420AD01832934209D0BB
:104A48001832934214BF4FF000634FF4001303E091
:104A5800202301E04FF40063144AD36013E0144AA2
:104A680093420AD01832934209D01832934214BFA5
:104A78004FF000634FF4001303E0202301E04FF4EC
:104A880000630A4A9360E36CE364112384F83530C9
:104A9800002384F83430E36B0BB12046984710BDEF
:104AA800B860024000640240586002400060024062
:104AB80010600240586402407064024090F835006B
:104AC8007047C06C704700BF7047704710B5094BFE
:104AD8004FF0FF3200241A621C625A625C621A614B
:104AE8001C615A615C619A619C61FFF7EEFF204688
:104AF80010BD00BF0038024010B5044600F0DAFCD3
:104B08004FF47A73B0FBF3F000F00AF94FF0FF307E
:104B18002146002200F0A8F8002010BD08B50B4B74
:104B28001A6842F400721A601A6842F480621A60C5
:104B38001A6842F480721A60032000F083F80F208C
:104B4800FFF7DAFFFFF7C0FF002008BD003C024076
:104B5800024B1A6801321A60704700BF5C040020DB
:104B6800014B1868704700BF5C04002013B5019022
:104B7800FFF7F6FF0446FFF7F3FF019B001B98427F
:104B8800F9D302B010BD034B1A6822F002021A6072
:104B9800704700BF10E000E0024B1A6842F00202C2
:104BA8001A60704710E000E00048704700000101FB
:104BB800014B1868000C7047002004E0024B18688D
:104BC800C0F30B00704700BF002004E0024B5A6896
:104BD80042F001025A607047002004E0024B5A6814
:104BE80022F001025A607047002004E0024B5A6824
:104BF80042F002025A607047002004E0024B5A68F3
:104C080022F002025A607047002004E0024B5A6802
:104C180042F004025A607047002004E0024B5A68D0
:104C280022F004025A607047002004E0014B012280
:104C38001A60704700042742014B00221A6070472F
:104C480000042742074AD1684FF6FF030B4043F0A0
:104C5800BF6343F4003300F0070043EA0023D36046
:104C6800704700BF00ED00E0164BDB68C3F302237A
:104C780070B51D1DC3F10704042C28BF0424062D9C
:104C88004FF001058CBF033B002305FA04F405FA35
:104C980003F6013C013E2140324001FA03F313437D
:104CA80000284FEA031305DADAB200F00F00064BCA
:104CB8001A5470BD00F1604000F56140DBB280F825
:104CC800003370BD00ED00E014ED00E0420901235F
:104CD80000F01F0003FA00F0014B43F82200704770
:104CE80000E100E04209012300F01F0003FA00F090
:104CF8002032024B43F82200704700BF00E100E079
:104D0800BFF34F8F044A054BD16801F4E0610B43B0
:104D1800D360BFF34F8FFEE700ED00E00400FA0513
:104D28000138B0F1807F0AD2064B074A5860F0215B
:104D380082F823100020072298601A60704701202B
:104D4800704700BF10E000E000ED00E0024BD868BB
:104D5800C0F30220704700BF00ED00E0002870B5E6
:104D680004DA00F00F00124C205C05E000F160400E
:104D780000F5614090F8000301F007010D1DC1F135
:104D88000704042C28BF0424062D4FEA10108CBFFA
:104D980003390021012520FA01F605FA04F405FA81
:104DA80001F1013C0139344008401460186070BDBD
:104DB80014ED00E04209012300F01F0003FA00F09F
:104DC8004032024B43F82200704700BF00E100E088
:104DD80042094032064B00F01F0053F822300122EE
:104DE80002FA00F018420CBF00200120704700BFF3
:104DF80000E100E04209012300F01F0003FA00F07F
:104E08006032024B43F82200704700BF00E100E027
:104E180042098032064B00F01F0053F8223001226D
:104E280002FA00F018420CBF00200120704700BFB2
:104E380000E100E0044B1A6804280CBF42F00402A9
:104E480022F004021A60704710E000E0704708B5CD
:104E5800FFF7FCFF08BD00BF104B1A6842F0810243
:104E68001A6000229A60196821F0A16121F480314A
:104E780019605A6058680A4901435960C3F8842088
:104E8800D3F8841041F0005141F44051C3F8841024
:104E9800196821F480211960DA60704700380240EF
:104EA8001030000438B50368DA07044603D42368D1
:104EB8009B074ED491E0854B9A6802F00C02042AB5
:104EC80007D09A6802F00C02082A0BD15B685D02D1
:104ED80008D57E4B1B689803E9D56368012BE6D09B
:104EE800012038BD7A4B00221A70FFF739FE0546BB
:104EF800764B1B68990308D5FFF732FE41F28833D9
:104F0800401B9842F4D9032038BD714B22791A709E
:104F18006368012B0ED1FFF723FE05466B4B1B6818
:104F28009A03C4D4FFF71CFE41F28833401B984211
:104F3800F4D9E8E7FFF714FE0546644B1B689B03AA
:104F4800B5D5FFF70DFE41F28833401B9842F4D9DE
:104F5800D9E75E4B9A6812F00C0F07D09A6802F0F6
:104F68000C02082A0AD15B68580207D4574B1A6802
:104F7800910715D5E268012AB2D111E0E268554BD4
:104F8800EAB101221A60FFF7EBFD05464F4B1A689C
:104F9800920705D4FFF7E4FD401B6428F6D9B2E771
:104FA8001A68F82191FAA1F1B1FA81F12369C9B21D
:104FB80022F0F8028B401343444A13600DE01A6054
:104FC800FFF7CEFD0546414B1B68980705D5FFF74F
:104FD800C7FD401B6428F6D995E72368190703D451
:104FE80023685A0749D51FE062693B4B72B1012219
:104FF8001A60FFF7B5FD0546344B5B6F9B07EFD48E
:10500800FFF7AEFD401B6428F6D97CE71A60FFF76E
:10501800A7FD05462D4B5B6F9807E1D5FFF7A0FD6F
:10502800401B6428F6D96EE7284B1A6C42F0805270
:105038001A64A3F5E4331A6842F480721A60FFF721
:105048008FFD0546254B1B68D90519D5244B002231
:105058001A70FFF785FD05461C4B1B6F9A0715D480
:105068001F4B227A1A70A368012B1FD1FFF778FD16
:105078000546164B1B6F9B0710D5A36993BB79E0B8
:10508800FFF76EFD401B6428DCD93CE7FFF768FD9D
:1050980041F28833401B9842DED934E7FFF760FDC0
:1050A80041F28833401B9842E3D92CE7FFF758FDBB
:1050B8000546064B1B6F9807DFD5FFF751FD41F2F8
:1050C8008833401B9842F4D91DE700BF00380240DE
:1050D8000238024000004742800E474200700040FC
:1050E80070380240314A926802F00C02082A3FF4F4
:1050F800F7AE022B2E4B4FF000021A6048D1FFF793
:105108002FFD0546294B1B68990135D447F6C07316
:1051180093FAA3F3B3FA83F34FF4403595FAA5F560
:10512800B5FA85F54FF0706090FAA0F0B0FA80F00B
:10513800216AE2690A43D9B2636A42F000528B409D
:105148001A43A36A5B08013BEDB203FA05F542EA8C
:105158000503E26AC0B202FA00F0144A034353603E
:10516800134B01221A60FFF7FBFC04460F4B1B6828
:105178009A0107D5002038BDFFF7F2FC401B6428D0
:10518800C0D9C0E6FFF7ECFC001B6428EED9BAE6EC
:10519800FFF7E6FC0446054B1B689B01EAD5FFF7C1
:1051A800DFFC001B6428F6D9ADE600BF00380240DA
:1051B800600047426E4B1A6802F00F02914270B5C8
:1051C80004460D4668D9CAB21A701B6803F00F036B
:1051D8008B4201D0012070BD0368980706D5654A47
:1051E800A168906820F0F00001439160D9070BD4C2
:1051F80023685A0740F1AD805E4AE168906820F460
:10520800E05001439160A4E062685A4B012A196892
:1052180002D111F4003F06E0022A02D111F0007F0A
:1052280001E011F0020FD5D0996821F003010A437B
:105238009A60FFF795FC6368012B05460ED14D4B2C
:105248009B6803F00C03042BD2D0FFF789FC41F2D2
:105258008833401B9842F2D9032070BD022B0CD032
:10526800444B9B6813F00C0F0ED1C1E7FFF778FC95
:1052780041F28833401B9842EED83E4B9B6803F0BE
:105288000C03082BF2D1B3E7FFF76AFC41F288332D
:10529800401B9842E4D9DFE703689E0706D5354AE4
:1052A800A168906820F0F00001439160D80708D405
:1052B8002F4BEAB21A701B6803F00F03AB4289D177
:1052C80096E762682B4B012A196802D111F4003F56
:1052D80006E0022A02D111F0007F01E011F0020F6E
:1052E8003FF478AF996821F003010A439A60FFF709
:1052F80037FC6368012B06460DD11E4B9B6803F0F3
:105308000C03042BD4D0FFF72BFC41F28833801B0D
:105318009842F2D9A0E7022B0CD0164B9B6813F0E9
:105328000C0F0ED1C4E7FFF71BFC41F28833801B3A
:10533800984291D80F4B9B6803F00C03082BF2D1CD
:10534800B6E7FFF70DFC41F28833801B9842E4D999
:1053580082E7190707D5074B21699A6822F460424A
:1053680042EAC1029A600F20FFF7C6FB002070BD19
:10537800003C02400038024070B51B4C86B00D4618
:105388001646236BA8B943F0010323634FF48073D7
:1053980001930223029303900323059001A9134864
:1053A8000493FBF75BFAA36823F0EC631E433543D1
:1053B80016E043F0040323634FF4007301930223C0
:1053C8000293032304930A48002301A90393059336
:1053D800FBF744FAA36845EAC60523F078431D4362
:1053E800A56006B070BD00BF003802400000024052
:1053F80000080240014B01221A6070474C004742E6
:10540800014B00221A6070474C00474226498B68BE
:1054180003F00C03042B10B544D0082B01D023480B
:1054280010BD4C684A6804F03F044FF4800393FAB7
:10543800A3F3B3FA83F302F48002DBB232FA03F384
:10544800194A47F6C0730ED0516893FAA3F3B3FA1A
:1054580083F347F6C072DBB20A40DA40144BB3FB61
:10546800F4F353430DE0526893FAA3F0B0FA80F0D6
:1054780047F6C073C0B21340C3400C48B0FBF4F405
:105488006343094A50684FF4403292FAA2F2B2FAE2
:1054980082F2D2B200F44030D04001304000B3FB79
:1054A800F0F010BD024810BD003802400024F4009E
:1054B80040787D0108B5FFF7A9FF094B9A68F023EA
:1054C80093FAA3F3B3FA83F302F0F002DBB222FA01
:1054D80003F3044AD35CD840034B186008BD00BFEF
:1054E80000380240905800080000002008B5FFF777
:1054F800E1FF084B9A684FF4E05393FAA3F3B3FA29
:1055080083F302F4E052DBB222FA03F3024AD35CDB
:10551800D84008BD003802409058000808B5FFF789
:10552800C9FF084B9A684FF4604393FAA3F3B3FAA0
:1055380083F302F46042DBB222FA03F3024AD35C3B
:10554800D84008BD00380240905800080F23036077
:10555800364B1A68520301D5052204E01A6812F482
:10556800803218BF012242601B6813F0010318BF84
:105578000123C3602D4B1A68F82393FAA3F3B3FAF7
:1055880083F302F0F802DBB222FA03F30361274B3C
:105598001A6F510701D5052204E01A6F12F00102B3
:1055A80018BF012282605B6F13F0010318BF01234B
:1055B80043611E4B1A68D2014CBF0222012282614C
:1055C8005A6802F48002C2615A6802F03F0202621D
:1055D800596847F6C07292FAA2F2B2FA82F247F616
:1055E800C0730B40D2B2D3404362104B5A684FF499
:1055F800403393FAA3F3B3FA83F302F4403202F58B
:1056080080325200DBB222FA03F38362074B5A68F6
:105618004FF0706393FAA3F3B3FA83F302F0706266
:10562800DBB222FA03F3C362704700BF00380240BE
:105638000F2303600B4B9A6802F0030242609A68DA
:1056480002F0F00282609A6802F4E052C2609B683D
:1056580003F46043DB080361034B1B6803F00F038B
:105668000B60704700380240003C0240704708B5A4
:10567800044BDB68190604D5FFF7F8FF024B8022BC
:105688001A7008BD003802400E38024010B50A4CA6
:1056980098B0FAF767FEFAF73FFE01A821464FF4E3
:1056A8000072FAF7A7FE01A821464FF40072FBF733
:1056B80055F8002018B010BD00080240DFF834D0BB
:1056C800002103E00C4B5B58435004310B480C4B52
:1056D80042189A42F6D30B4A02E0002342F8043BF0
:1056E800094B9A42F9D3FBF761F800F031F8FFF75C
:1056F800CDFF7047FFFF0120B458000800000020CC
:10570800400400204004002068040020FEE7000058
:10571800014600200246034600F048B838B545F671
:10572800B40445F6B005C0F60005C0F60004641BD5
:10573800A41018BF05EB840505D0013C55F8043DBD
:105748009847002CF9D1BDE8384000F097B800BF61
:1057580070B545F6A80645F6A805C0F60005C0F6DA
:105768000006761BB6101CBF043D002405D001348A
:1057780055F8043F9847A642F9D145F6B00645F6D4
:10578800A805C0F60005C0F60006761B00F070F804
:10579800B6101CBF043D002406D0013455F8043F60
:1057A8009847A642F9D170BD70BD00BFF0B545F667
:1057B800A404C0F6000485B02668D6F84841074618
:1057C800002C44D065681F2D21DD40F20004C0F292
:1057D80000041CB94FF0FF3005B0F0BD4FF4C8709D
:1057E800039102920193AFF300800399029A019BFF
:1057F80004460028EED0D6F84851002025606060A5
:105808000546C6F84841C4F88801C4F88C013FB978
:10581800AB1C00200135656044F8231005B0F0BDCD
:1058280004EB85004FF0010CC0F88820D4F888619B
:105838000CFA05F21643022FC4F88861C0F8083143
:1058480002BFD4F88C311A43C4F88C21E0E706F57E
:10585800A674C6F84841B5E740F20003C0F2000359
:105868002BB145F22570C0F60000FFF751BF704715
:10587800F8B500BFF8BC08BC9E467047F8B500BF35
:08588800F8BC08BC9E46704705
:1058900000000000010203040102030406070809D6
:0858A000430000001800002085
:0858A80061580008110200081C
:0458B000E10100080A
:1058B4000024F400000000000000000001020304C2
:1058C400060708090000000000000000040300208F
:1058D4006C030020D403002000000000000000003E
:1058E40000000000000000000000000000000000B4
:1058F400000000000000000000000000A0580008A4
:105904000000000000000000000000000000000093
:105914000000000000000000000000000000000083
:105924000000000000000000000000000000000073
:105934000000000000000000000000000000000063
:105944000000000000000000000000000000000053
:105954000000000000000000000000000000000043
:105964000000000000000000000000000000000033
:1059740001000000000000000E33CDAB34126DE6D0
:10598400ECDE05000B000000000000000000000039
:105994000000000000000000000000000000000003
:1059A40000000000000000000000000000000000F3
:1059B40000000000000000000000000000000000E3
:1059C40000000000000000000000000000000000D3
:04000005080056C5D4
:00000001FF
